:100A6500507265737320746F2076696577205469B9
:100A75006D657461626C650041434D204F53205490
:100A85004C4120445300544C4120445350204F5373
:100A95002049544300495443204453205341502096
:100AA500544C4100544C412D545554204954432D28
:100AB5005455540044532041434D204F5320445333
:100AC50050004946452041434D0053554E44415938
:100AD500005E5E5E5E0020342C352C36204C45448D
:100AE500204F464600204F4646004D494E4920506E
:070AF500524F4A4543540033
:040C8600020B00005D
:100B8800C297C296C295C294C293C292C2A3C2A28D
:080B9800C2A1C2A07F647E002F
:100BA000E4FDFCD3ED9FEE6480F8EC648098501572
:100BB000E4FBFA0BBB00010ABA03F8BBE9F50DBD73
:050BC00000010C80DEC5
:010BC500220D
:0E0C6A00D290D2917F0A7E00120BA0C291227E
:100C4400A907E954F0F5A0120C6AE9C454F0F5A020
:030C5400020C6A25
:0E0C7800C290D2917F0A7E00120BA0C2912280
:100C5700A907E954F0F5A0120C78E9C454F0F5A0FF
:030C6700020C7804
:0B0BC6007F01120C577BFF7A0A79D6E2
:100BD1008B088A09890AAB08AA09A90A120C17FF0E
:100BE1006010120C447401250AF50AE43509F5096F
:030BF10080E4227B
:100C30007F02120C577F28120C577F0E120C577F21
:040C400001020C574A
:100BF400EF4E7005ED24808015D3ED940FEC6480E6
:100C040094804007E4FCFDF50BF50CED24C0FF12C5
:030C14000C572258
:10080000C297C296C295C294C293C292C2A3C2A218
:10081000C2A1C2A0E4F50BF50C120C307F80120CC3
:10082000577BFF7A0A7965120BD17FC0120C57C231
:10083000B4D2B5D2B6D2B77F0A7E00120BA020B0D8
:100840001D7F01120C577BFF7A0A797D120BD1D2E2
:10085000A0120B9C050CE50C706E050B806A20B194
:100860001F7F01120C577BFF7A0A798B120BD1D2B2
:10087000A0D2A1120B9C050CE50C704C050B804816
:1008800020B2217F01120C577BFF7A0A799A120B52
:10089000D1D2A0D2A1D2A2120B9C050CE50C7028DB
:1008A000050B802420B3217F01120C577BFF7A0AAD
:1008B00079A9120BD1D2A0D2A1D2A2D2A3120B9CA1
:1008C000050CE50C7002050BD2B4C2B5D2B6D2B697
:1008D000D2B77F0A7E00120BA020B0267F01120C37
:1008E000577BFF7A0A79B9120BD1D2A0D2A1D2A23A
:1008F000D2A3D292120B9C050CE50C7002050B02E0
:10090000097920B1277F01120C577BFF7A0A79C73A
:10091000120BD1D2A0D2A1D2A2D2A3D292D2931240
:100920000B9C050CE50C7051050B804D20B2297F06
:1009300001120C577BFF7A0A79CF120BD1D2A0D2C9
:10094000A1D2A2D2A3D292D293D294120B9C050C24
:10095000E50C7025050B802120B31E120BC6D2A01A
:10096000D2A1D2A2D2A3D292D293D294D295120B78
:100970009C050CE50C7002050BD2B4D2B5C2B6D200
:10098000B77F0A7E00120BA020B0257F01120C5702
:10099000120BC6D2A0D2A1D2A2D2A3D292D293D20B
:1009A00094D295120B9C050CE50C703A050B803621
:1009B00020B1337F01120C577BFF7A0A79DB120BCF
:1009C000D1C2A3C292C2937F01120C577BFF7A0A55
:1009D00079DB120BD1C2A3C292C293120B9C050CFD
:1009E000E50C7002050BD2B4D2B5D2B6C2B77F0AFD
:1009F0007E00120BA020B0227F01120C577BFF7AE1
:100A00000A79EA120BD1C294C295C296120B9C05C8
:100A10000CE50C7026050B02082F20B1217F011276
:100A20000C577BFF7A0A79EF120BD17FC0120BC8EB
:100A3000120B88050CE50C7002050B02082F30B272
:100A40000302082F7F01120C577BFF7A0A79EF12FD
:100A50000BD17FC0120BC8120B88050CE50C70027D
:050A6000050B02082F48
:03000000020AFCF5
:0C0AFC00787FE4F6D8FD75810C020B43F6
:100C1700BB010689828A83E0225002E722BBFE02DB
:090C2700E32289828A83E493220E
:100B0800020800E493A3F8E493A34003F68001F2FB
:100B180008DFF48029E493A3F85407240CC8C333EE
:100B2800C4540F4420C8834004F456800146F6DFBD
:100B3800E4800B0102040810204080900C86E47EBB
:100B4800019360BCA3FF543F30E509541FFEE493B2
:100B5800A360010ECF54C025E060A840B8E493A379
:100B6800FAE493A3F8E493A3C8C582C8CAC583CAA4
:100B7800F0A3C8C582C8CAC583CADFE9DEE780BE5C
:010C8A000069
:00000001FF
